{
  "abi": [
    {
      "inputs": [],
      "stateMutability": "nonpayable",
      "type": "constructor"
    },
    {
      "inputs": [],
      "name": "read",
      "outputs": [
        {
          "internalType": "uint256",
          "name": "result",
          "type": "uint256"
        }
      ],
      "stateMutability": "view",
      "type": "function"
    }
  ],
  "bytecode": {
    "object": "0x6080604052348015600f57600080fd5b50601160005560788060226000396000f3fe6080604052348015600f57600080fd5b506004361060285760003560e01c806357de26a414602d575b600080fd5b60005460405190815260200160405180910390f3fea26469706673582212202f02fa80eafcfc7da5526b2c707341b32f98e94863fb9d21f6416a5122ad453264736f6c63430008060033",
    "linkReferences": {}
  },
  "methodIdentifiers": {
    "read()": "57de26a4"
  },
  "id": 0
}